:020000040800F2
:10000000000003202D19000879190008791900084B
:100010007919000879190008791900080000000012
:10002000000000000000000000000000B5140008FF
:100030007919000800000000451500089D1500080A
:100040007919000879190008791900087919000848
:100050007919000879190008451300087919000872
:100060007919000879190008791900087919000828
:100070007919000879190008791900087919000818
:100080007919000879190008791900087919000808
:1000900079190008791900087919000879190008F8
:1000A00079190008791900087919000879190008E8
:1000B000D51600087919000879190008791900087F
:1000C00079190008791900087919000879190008C8
:1000D0007919000801130008791900087919000836
:1000E00079190008791900087919000879190008A8
:1000F0007919000879190008791900087919000898
:100100007919000879190008791900087919000887
:100110007919000879190008791900087919000877
:100120007919000879190008791900087919000867
:100130007919000879190008791900087919000857
:100140007919000879190008791900087919000847
:100150007919000879190008791900087919000837
:100160007919000879190008791900087919000827
:100170007919000879190008791900087919000817
:100180007919000879190008791900087919000807
:1001900079190008791900087919000879190008F7
:0C01A00079190008791900087919000885
:1001B000D86E01080000002010090020100900205E
:1001C0008C83002081F0004102E000BF83F00043F7
:1001D00030B54FEA41044FEA430594EA050F08BFE2
:1001E00090EA020F1FBF54EA000C55EA020C7FEAA6
:1001F000645C7FEA655C00F0E2804FEA5454D4EB23
:100200005555B8BF6D420CDD2C4480EA020281EAEC
:10021000030382EA000083EA010180EA020281EA24
:100220000303362D88BF30BD11F0004F4FEA013176
:100230004FF4801C4CEA113102D0404261EB410185
:1002400013F0004F4FEA03334CEA133302D052420B
:1002500063EB430394EA050F00F0A780A4F10104C7
:10026000D5F1200E0DDB02FA0EFC22FA05F2801801
:1002700041F1000103FA0EF2801843FA05F35941E7
:100280000EE0A5F120050EF1200E012A03FA0EFC66
:1002900028BF4CF0020C43FA05F3C01851EBE37190
:1002A00001F0004507D54FF0000EDCF1000C7EEBAD
:1002B00000006EEB0101B1F5801F1BD3B1F5001FEB
:1002C0000CD349085FEA30004FEA3C0C04F101040A
:1002D0004FEA445212F5800F80F09A80BCF1004F33
:1002E00008BF5FEA500C50F1000041EB045141EAB5
:1002F000050130BD5FEA4C0C404141EB010111F4B6
:10030000801FA4F10104E9D191F0000F04BF014660
:100310000020B1FA81F308BF2033A3F10B03B3F13E
:1003200020020CDA0C3208DD02F1140CC2F10C02CE
:1003300001FA0CF021FA02F10CE002F11402D8BF2C
:10034000C2F1200C01FA02F120FA0CFCDCBF41EAF8
:100350000C019040E41AA2BF01EB0451294330BDC7
:100360006FEA04041F3C1CDA0C340EDC04F11404A4
:10037000C4F1200220FA04F001FA02F340EA03007B
:1003800021FA04F345EA030130BDC4F10C04C4F1C1
:10039000200220FA02F001FA04F340EA03002946A1
:1003A00030BD21FA04F0294630BD94F0000F83F4EB
:1003B000801306BF81F480110134013D4EE77FEACE
:1003C000645C18BF7FEA655C29D094EA050F08BF1A
:1003D00090EA020F05D054EA000C04BF19461046FB
:1003E00030BD91EA030F1EBF0021002030BD5FEA3F
:1003F000545C05D14000494128BF41F0004130BD67
:1004000014F580043CBF01F5801130BD01F00045BA
:1004100045F0FE4141F470014FF0000030BD7FEA2D
:10042000645C1ABF194610467FEA655C1CBF0B4628
:10043000024650EA013406BF52EA033591EA030F3F
:1004400041F4002130BD00BF90F0000F04BF002137
:10045000704730B54FF4806404F132044FF000056A
:100460004FF0000150E700BF90F0000F04BF0021E3
:10047000704730B54FF4806404F1320410F0004549
:1004800048BF40424FF000013EE700BF42004FEA44
:10049000E2014FEA31014FEA02701FBF12F07F43C1
:1004A00093F07F4F81F06051704792F0000F14BFBE
:1004B00093F07F4F704730B54FF4607401F0004502
:1004C00021F0004120E700BF50EA010208BF704759
:1004D00030B54FF000050AE050EA010208BF70474E
:1004E00030B511F0004502D5404261EB41014FF4B7
:1004F000806404F132045FEA915C3FF4DCAE4FF0BB
:1005000003025FEADC0C18BF03325FEADC0C18BFA1
:10051000033202EBDC02C2F1200300FA03FC20FAF2
:1005200002F001FA03FE40EA0E0021FA02F114443F
:10053000C1E600BF70B54FF0FF0C4CF4E06C1CEA54
:1005400011541DBF1CEA135594EA0C0F95EA0C0FC9
:1005500000F0DEF82C4481EA030621EA4C5123EA3C
:100560004C5350EA013518BF52EA033541F480116B
:1005700043F4801338D0A0FB02CE4FF00005E1FB1E
:1005800002E506F00042E0FB03E54FF00006E1FB68
:1005900003569CF0000F18BF4EF0010EA4F1FF04AB
:1005A000B6F5007F64F5407404D25FEA4E0E6D41EB
:1005B00046EB060642EAC62141EA55514FEAC520FC
:1005C00040EA5E504FEACE2EB4F1FD0C88BFBCF578
:1005D000E06F1ED8BEF1004F08BF5FEA500E50F129
:1005E000000041EB045170BD06F0004646EA0101EF
:1005F00040EA020081EA0301B4EB5C04C2BFD4EB21
:100600000C0541EA045170BD41F480114FF0000E19
:10061000013C00F3AB8014F1360FDEBF002001F087
:10062000004170BDC4F10004203C35DA0C341BDC01
:1006300004F11404C4F1200500FA05F320FA04F0D3
:1006400001FA05F240EA020001F0004221F0004107
:1006500010EBD37021FA04F642EB06015EEA430E7A
:1006600008BF20EAD37070BDC4F10C04C4F12005AA
:1006700000FA04F320FA05F001FA04F240EA02005D
:1006800001F0004110EBD37041F100015EEA430E2E
:1006900008BF20EAD37070BDC4F1200500FA05F24E
:1006A0004EEA020E20FA04F301FA05F243EA0203CD
:1006B00021FA04F001F0004121FA04F220EA0200DC
:1006C00000EBD3705EEA430E08BF20EAD37070BD22
:1006D00094F0000F0FD101F00046400041EB010102
:1006E00011F4801F08BF013CF7D041EA060195F0E4
:1006F000000F18BF704703F00046520043EB03039E
:1007000013F4801F08BF013DF7D043EA060370478A
:1007100094EA0C0F0CEA135518BF95EA0C0F0CD095
:1007200050EA410618BF52EA4306D1D181EA0301DB
:1007300001F000414FF0000070BD50EA410606BFD5
:100740001046194652EA430619D094EA0C0F02D11A
:1007500050EA013613D195EA0C0F05D152EA03365F
:100760001CBF104619460AD181EA030101F000417D
:1007700041F0FE4141F470014FF0000070BD41F0C6
:10078000FE4141F4780170BD70B54FF0FF0C4CF4A0
:10079000E06C1CEA11541DBF1CEA135594EA0C0FBF
:1007A00095EA0C0F00F0A7F8A4EB050481EA030E0C
:1007B00052EA03354FEA013100F088804FEA0333F3
:1007C0004FF0805545EA131343EA12634FEA0222C1
:1007D00045EA111545EA10654FEA00260EF0004182
:1007E0009D4208BF964244F1FD0404F5407402D2D4
:1007F0005B084FEA3202B61A65EB03055B084FEA65
:1008000032024FF480104FF4002CB6EB020E75EB61
:10081000030E22BFB61A754640EA0C005B084FEA89
:100820003202B6EB020E75EB030E22BFB61A754606
:1008300040EA5C005B084FEA3202B6EB020E75EB51
:10084000030E22BFB61A754640EA9C005B084FEAC9
:100850003202B6EB020E75EB030E22BFB61A7546D6
:1008600040EADC0055EA060E18D04FEA051545EAC5
:1008700016754FEA06164FEAC30343EA52734FEA6E
:10088000C2025FEA1C1CC0D111F4801F0BD141EAE7
:1008900000014FF000004FF0004CB6E711F4801F4C
:1008A00004BF01430020B4F1FD0C88BFBCF5E06F2C
:1008B0003FF6AFAEB5EB030C04BFB6EB020C5FEA3C
:1008C000500C50F1000041EB045170BD0EF0004E91
:1008D0004EEA113114EB5C04C2BFD4EB0C0541EAC3
:1008E000045170BD41F480114FF0000E013C90E6C0
:1008F00045EA060E8DE60CEA135594EA0C0F08BF84
:1009000095EA0C0F3FF43BAF94EA0C0F0AD150EA82
:1009100001347FF434AF95EA0C0F7FF425AF104615
:1009200019462CE795EA0C0F06D152EA03353FF43D
:10093000FDAE1046194622E750EA410618BF52EABA
:1009400043067FF4C5AE50EA41047FF40DAF52EA8E
:1009500043057FF4EBAE12E74FF0FF3C06E000BF2B
:100960004FF0010C02E000BF4FF0010C4DF804CD38
:100970004FEA410C7FEA6C5C4FEA430C18BF7FEAF8
:100980006C5C1BD001B050EA410C0CBF52EA430C26
:1009900091EA030F02BF90EA020F0020704710F1A6
:1009A000000F91EA030F58BF994208BF90422CBF35
:1009B000D8176FEAE37040F0010070474FEA410C2E
:1009C0007FEA6C5C02D150EA013C07D14FEA430C4C
:1009D0007FEA6C5CD6D152EA033CD3D05DF8040BBD
:1009E000704700BF8446104662468C4619466346EF
:1009F00000E000BF01B5FFF7B7FF002848BF10F1C6
:100A0000000F01BD4DF808EDFFF7F4FF0CBF01200A
:100A100000205DF808FB00BF4DF808EDFFF7EAFF86
:100A200034BF012000205DF808FB00BF4DF808ED41
:100A3000FFF7E0FF94BF012000205DF808FB00BF36
:100A40004DF808EDFFF7CEFF94BF012000205DF8C0
:100A500008FB00BF4DF808EDFFF7C4FF34BF0120CD
:100A600000205DF808FB00BF4FEA410212F50012BA
:100A700015D211D56FF47873B3EB625212D94FEAE5
:100A8000C12343F0004343EA505311F0004F23FACF
:100A900002F018BF404270474FF00000704750EA24
:100AA000013005D111F0004008BF6FF000407047E1
:100AB0004FF00000704700BF4BB942B9002908BF92
:100AC000002802D04FF0FF31084600F037B882B05E
:100AD000EC462DE9005000F01BF8DDF804E002B010
:100AE0000CBC7047F8B5164604460D461F4600F08C
:100AF00027F806FB01F300FB0737A6FB0023FB18D2
:100B0000A21A65EB0303069CC4E90023F8BD00BFED
:100B1000F8B5164604460D461F4600F06FF900FB77
:100B200007F7A0FB062306FB0177FB18A21A65EB6B
:100B30000303069CC4E90023F8BD00BF704700BF53
:100B400000292DE9F00F1D46C0F29D800024002DE4
:100B5000C0F2948080460F4694461E46E3BB8A420C
:100B600055D9B2FA82F747B1C7F1200520FA05F648
:100B700001FA07F1BA403143B840170CB1FBF7F660
:100B8000030C1FFA82FC07FB16110CFB06F543EA67
:100B900001439D4208D9711E9B1880F013819D422C
:100BA00040F21081023E9B18591BB1FBF7F507FB81
:100BB000151380B20CFB05FC40EA03418C4507D9B4
:100BC0006B1E8A1880F00081944540F2FD80023D42
:100BD00045EA0641002503E08B420CD90025294651
:100BE0000A462B4614B1524263EB430310461946A2
:100BF000BDE8F00F7047B3FA83F5002D40F0878011
:100C00008B4201D38242EAD800250121E8E712B9DC
:100C10000126B6FBF2F2B2FA82F6002E39D18E1A14
:100C2000130C1FFA82FC0125B6FBF3F703FB1761D7
:100C30004FEA10490CFB07F849EA0146B04506D9CE
:100C4000791EB61802D2B04500F2D3800F46C8EB29
:100C50000606B6FBF3F103FB116380B20CFB01FC4B
:100C600040EA03439C4506D94E1E9A1802D2944589
:100C700000F2C280314641EA0741B1E7E443524203
:100C800063EB430366E7404261EB41014FF0FF3401
:100C90005DE7B240C6F1200921FA09F720FA09F50B
:100CA000130C01FA06F1B7FBF3F845EA01091FFA44
:100CB00082FC03FB18774FEA19410CFB08F541EA67
:100CC0000747B040BD420AD9BF1808F1FF3680F08F
:100CD0008E80BD4240F28B80A8F10208BF18791BBC
:100CE000B1FBF3F503FB15171FFA89F90CFB05F6A9
:100CF00049EA07418E4206D96F1E891871D28E4289
:100D00006FD9023D89188E1B45EA08458CE7C5F16D
:100D1000200122FA01F306FA05F61E4327FA01F232
:100D20004FEA164907FA05F720FA01F1B2FBF9F884
:100D30000F433B0C1FFA86FA09FB18220AFB08FB3B
:100D400043EA024293450CFA05FC08D9921908F1CE
:100D5000FF314AD2934548D9A8F102089219CBEB4A
:100D60000203B3FBF9F109FB1132BFB20AFB01FA2E
:100D700047EA02439A4506D94A1E9B1933D29A453F
:100D800031D902399B1941EA08410F0C1FFA8CF83E
:100D900008FB07F68AB24FEA1C4C08FB02F80CFB72
:100DA000026202EB18420CFB07FC964288BF0CF56E
:100DB000803CCAEB03030CEB124C63450ED305D009
:100DC00000250DE70E46EFE61D4601E71FFA88F8FD
:100DD00000FA05F008EB0245A842F1D201390025DE
:100DE000FEE63D468FE71146CDE78846B7E7B046B9
:100DF00075E7023FB6182AE702393CE72DE9F0070C
:100E0000144605460E46002B3DD18A4249D9B2FA16
:100E100082F747B1C7F1200120FA01F206FA07F67E
:100E2000BC401643BD40220CB6FBF2F02F0CA1B221
:100E300002FB106601FB00F347EA0646B34208D9FD
:100E4000471E361980F0F880B34240F2F580023830
:100E50003619F61AB6FBF2F302FB1362ADB201FBD0
:100E600003F145EA0242914207D95E1E121980F051
:100E7000E580914240F2E280023B43EA00400021DB
:100E8000BDE8F00770478B4243D8B3FA83F4002CD7
:100E900042D18B4202D3824200F2DF800021012046
:100EA000EEE712B90127B7FBF2F4B4FA84F2002A94
:100EB00040F088800A1B230CA7B20121B2FBF3F695
:100EC00003FB16224FEA154C07FB06F04CEA0242E0
:100ED000904207D9121906F1FF3C02D2904200F26B
:100EE000CE806646121AB2FBF3F003FB1023ADB2BC
:100EF00007FB00F745EA03439F4207D9421E1B192F
:100F000080F09E809F4240F29B80023840EA06407B
:100F1000B6E700210846B3E7C4F1200622FA06F539
:100F200003FA04F32B434FEA134C21FA06F501FAB6
:100F300004F120FA06F6B5FBFCF746EA010A1FFAAF
:100F400083F80CFB17554FEA1A4108FB07F941EAF1
:100F50000545A94502FA04F203D97E1EED187FD398
:100F60003746C9EB0501B1FBFCF60CFB16151FFA61
:100F70008AFA08FB06F84AEA0541884503D9751E36
:100F8000C91873D32E4646EA0746370C1FFA82FC6F
:100F90000CFB07F5120CB3B20CFB03FC02FB035372
:100FA00003EB1C4302FB07F29D4288BF02F580322F
:100FB000C8EB010102EB134291424BD342D03046C1
:100FC00000215DE79440C2F1200521FA05F6230CCB
:100FD00020FA05F701FA02F1B6FBF3FC39430D0CD8
:100FE000A7B203FB1C6645EA064607FB0CF8B045B2
:100FF00000FA02F508D936190CF1FF303DD2B045A0
:101000003BD9ACF1020C3619C8EB0602B2FBF3F087
:1010100003FB10268AB242EA064207FB00F1914226
:1010200006D9461E121926D2914224D90238121925
:10103000521A40EA0C4141E738460AE733461CE7BA
:10104000104663E71FFA8CFC00FA04F00CEB034334
:101050009842B4D2701E002112E7214620460FE7C5
:10106000A9457FF67DAF023FED187AE7884589D91B
:10107000023EC91887E73046DAE78446C4E7023EF5
:1010800012192FE710B50AF0C9FB0E4C00210B46D0
:101090004FF0FF32206809F0C1FE4FF4C0504FF40A
:1010A0008041C4F2020001F0E9FBC0F101024FF4FB
:1010B000C050C4F202004FF48041D2B201F0ECFB08
:1010C000E4E700BF2809002030B5144B93E807007F
:1010D0009FB002AC03C422700AF0A0FB1EAD002436
:1010E00045F8740D4FF4967128460AF0E5FE0AF0B3
:1010F000ADFB1EA902460819094910F8703C05A865
:101100000DF002F804F0C4FB05A9C08804F06EFDE0
:10111000621CD4B2082C08BF0024E3E7F0410108A8
:10112000E041010870B5012086B0014602F064FA82
:1011300001214FF4804002F097FA06A9082600200A
:10114000044641F8106DC4F202008DF80C408DF891
:101150000F4001F0C3FA2046214603F05DF8012557
:1011600004A804958DF814408DF815608DF816507C
:1011700002F0CAFF062301A88DF804308DF805504F
:101180008DF806508DF8075000F002FC06B070BDD7
:10119000F0B501258DB000F0CFFA102029460024CB
:1011A00002F062FA03270226284629468DF81D70B0
:1011B0008DF81C608DF81E408DF81F5002F01CFA4F
:1011C000204609210722C4F2020001F071FB2046EB
:1011D00007220A21C4F2020001F06AFB0CA94FF4B5
:1011E000C063204641F8183DC4F2020001F076FACF
:1011F0004FF480500C234FF4E132C4F2010008A9EF
:10120000ADF82A300892ADF82C40ADF82840ADF882
:101210002640ADF8244002F08FFB4FF4805040F29E
:1012200025512A46C4F2010002F0F6FC252205A849
:101230008DF814208DF815408DF816408DF8175054
:1012400000F0A6FB4FF48050C4F20100294602F0E2
:1012500009FCFFF767FF08F03FFF04F055FA46F678
:101260008400C4F20100294601F0A4FE46F60410F1
:101270002146C4F2010001F09DFE284601F02EFE39
:10128000284601F0E9FD204604F0A8FA154804F0CC
:10129000DFFA4FF6FF7004F075FB204604F0CCFA3D
:1012A00000F068F83A462146284609F039FB0E4F0F
:1012B0000E4938600E4800954FF480722346019025
:1012C000029403940B4809F0FFFF0B49009680221B
:1012D0002346019402940394084809F0F5FF0AF0AC
:1012E00059FAFEE73000002028090020FC410108DF
:1012F0001C090020C91000080042010885100008E0
:101300004FF4805008B5C4F2010040F2255102F0BC
:10131000A9FC012800D008BD084B094A1868002123
:101320000B4609F015FD4FF48050C4F2010040F265
:101330002551BDE8084002F0B9BC00BF28090020D3
:101340001009002008B5012002F03CFF00B908BDDB
:10135000054B064A186800210B4609F0F9FC0120EC
:10136000BDE8084002F038BF280900201809002015
:10137000FEE700BF30B5402083B001214FF4C054D8
:1013800002F03AF9C4F202044FF4C04300252046AB
:1013900069460093012202238DF804208DF806503F
:1013A0008DF807508DF8053001F098F940F63410AB
:1013B00040F62C11C2F20001C2F200000C60058060
:1013C0004C6003B030BD00BF012838B504460D465F
:1013D00000D938BD00F094F8084B094953F82400AF
:1013E000084B31F81410003518BF01252A461D5549
:1013F00001F052FABDE8384000F09AB82C090020FC
:101400000C42010834090020012838B5044600D9EF
:1014100038BD00F075F80A4B0A4A1D5D0A4952F8BA
:10142000240031F81410D5F1010538BF00252A46F3
:101430001D5501F031FABDE8384000F079B800BF21
:10144000340900202C0900200C420108012801D990
:1014500000207047014B185C704700BF3409002022
:1014600005480068006880F3088862B6BFF34F8FB4
:10147000BFF36F8F00DF00BF08ED00E0DFF80C0066
:10148000016841F4700101607047000088ED00E0E0
:101490004FF0807300E90A0041F22153C0F60003C7
:1014A0006FF0020140F80C3C40F8202C40F8241C5E
:1014B00044387047064B19680868B0E8F04F80F36D
:1014C0000988BFF36F8F4FF0000080F311887047D9
:1014D000F8090020704700BF4EF60453CEF2000317
:1014E0004FF080521A60BFF34F8FBFF36F8F70477A
:1014F000EFF311804FF0BF0181F311887047002096
:1015000008B5FFF7F5FF40F20003C2F200031A68C6
:10151000501C1860BFF34F8FBFF36F8F08BD00BF23
:1015200008B5FFF7E5FFFEE780F31188704700BFBD
:10153000034B18680138186000B17047FFF7F4BF1B
:1015400000000020EFF30980BFF36F8F124B1A6881
:101550001EF0100F08BF20ED108A20E9F04F106038
:101560004DF8043D4FF0BF0080F311880AF0ECFC09
:101570004FF0000080F3118808BC19680868B0E8D3
:10158000F04F1EF0100F08BFB0EC108A80F30988EE
:10159000BFF36F8F704700BFF809002008B5FFF751
:1015A000A7FF0AF063F930B14EF60453CEF2000300
:1015B0004FF080521A600020BDE80840FFF7B4BF2A
:1015C0004EF214024EF21003CEF2000241F63F1129
:1015D000CEF20003C0F201010720116018607047CD
:1015E00008B54EF62053CEF200031A6842F47F008D
:1015F0001860196841F07F421A60FFF7E1FF094B5C
:1016000000201860FFF73AFF4EF63471CEF2000169
:101610000A6842F040400860FFF722FFFFF768FFCA
:10162000FEE700BF0000002070B5012084B0014635
:1016300002F00CF84FF480640121022002F006F859
:10164000C4F200044FF0804002F016FE204602F083
:1016500013FE01A802F052FF00234FF4616201A9BA
:101660004FF080401E46ADF80430ADF80C30ADF8B8
:101670000630029202F0EAFE01214FF0804002F0B3
:1016800079FF4FF6FF7501A92046029502F0DEFEB4
:101690002046012102F06EFF01251C2168468DF8CD
:1016A00000108DF802608DF801608DF8035000F095
:1016B0006FF929462A464FF0804003F0D7FB2946B0
:1016C0004FF0804002F07CFF2046294602F078FF70
:1016D00004B070BD4FF480631248C4F20003028866
:1016E000596A042A10B489B218D90F4A0F481388CE
:1016F0000488CB1A9BB29C4205D2A3F56164038097
:101700000B4BA0B218800B4B118019684FF0804032
:101710004A1C01211A6010BC03F0CABB531C038091
:10172000014AF0E744090020380900203A09002066
:101730003C090020400900204FF46D42CEF2000227
:101740004FF46053D2F88810C4F2020341F47000E1
:10175000C2F888001968002241F0010018609A6000
:10176000186843F2100120F0847020F48030C2F237
:10177000004118605960196882B021F48020186017
:10178000DA60009201921A6842F4803119601846BA
:1017900003E00099B1F5A04F09D0036803F40032CB
:1017A000019200994B1C0093019A002AF1D04FF44A
:1017B0006050C4F20200036813F400325DD00121CE
:1017C0000191019801285CD04FF46050C4F20200EE
:1017D0004FF4E043016CC4F2000341F08052026414
:1017E000196841F440421A6083688360816841F45B
:1017F00000428260836843F4A0518160026842F035
:101800008073036001688B01FCD54FF4E043C4F2A0
:10181000000319461A6842F4803018604A684FF491
:10182000E043D003C4F20003F8D5196841F4003056
:1018300018605A689203FCD54FF47053C4F2020347
:101840004FF46050C4F2020040F2057119608268E2
:1018500022F003038360816841F0020282608368A2
:1018600003F00C010829FAD14FF46D40CEF20000CC
:101870004FF00062826002B0704701920198012827
:10188000A2D14FF46053C4F2020343F20462C0F6E3
:1018900042125A6098E700BF4FF46053C4F202034B
:1018A0009A6802F00C00042813D0082816D04FF4D0
:1018B0001052C0F2F4024FF46053C4F2020319490B
:1018C0009868C0F30313C85C174B22FA00F21A6041
:1018D00070474FF49052C0F27A02ECE758685968AA
:1018E00010F4800F586801F03F0214BF4FF490537A
:1018F0004FF41053C0F388114FF4605014BFC0F27E
:101900007A03C0F2F403C4F20200B3FBF2F303FB68
:1019100001F24168C1F30143581C4100B2FBF1F2EE
:10192000C9E700BF0400002014000020002100F0DF
:1019300004B80C4B5B58435004310B480B4B421816
:101940009A42FFF4F6AF0A4A00F003B8002342F8C7
:10195000043B084B9A42FFF4F9AFFFF7EDFEFFF7A7
:1019600017FC7047D86E0108000000201009002005
:10197000100900208C830020FFF7FEBF4FF46D4359
:1019800040F0BF60CEF2000340F40031D9607047F0
:10199000C37830B47BB902784FF461435109CEF279
:1019A000000302F01F022031012000FA02F243F886
:1019B000212030BC70474FF46D44CEF200044578CE
:1019C000E16884780378CA43C2F30222C2F10401B9
:1019D000C9B205FA01F10F2545FA02F2C9B2224057
:1019E0000A4303F16043110103F56143CAB283F86E
:1019F000002300784FF46143410900F01F02CEF24A
:101A00000003012000FA02F243F82120D1E700BFD1
:101A100021F060414FF46D4321F07F02CEF20003CC
:101A200010439860704700BF4FF46D43CEF200033F
:101A30001A6919B922EA0000186170471043186149
:101A4000704700BF4EF21003CEF2000304281A685C
:101A50000CBF42F0040222F004021A60704700BF7B
:101A600008B501214FF4000001F00CFE4FF4000016
:101A70000021BDE8084001F005BE00BF4FF430432F
:101A8000C4F2020370B41A6822F0031121F4F8546E
:101A90001C601D68066845EA06021A60596B21F051
:101AA00007045C635D6B426842EA05065E63C368D7
:101AB0000169002A30D0012A33D0022A35D0032A06
:101AC000446936D01E010D0224034FF43043C4F2A2
:101AD00002038268996B1143314341EA05022243B4
:101AE0009A638469DC63196C21F47F5222F03F040D
:101AF0001C64196CC26941EA02041C645A6C416A94
:101B000002F040445C645C6C006A44EA000242EA11
:101B10000141596470BC704742691E020D041406ED
:101B2000D3E71E020D040024CFE75E01CD0200249E
:101B3000CBE75E018D02E403C7E700BF002303602B
:101B40004360C3608360036143618361C361036277
:101B5000436270474FF43043C4F202031A6842F004
:101B600001001860704700BF4FF43043C4F2020315
:101B70001A6842F004001860704700BF4FF4304309
:101B8000C4F202031A6818B922F002001860704704
:101B900042F00201196070474FF43043C4F202036F
:101BA0000268F0B4DA60196921F47F5424F03F052B
:101BB0001D611E69476846EA07021A61D969C02497
:101BC000C0F2FC040C40DC61DF698668C56804690A
:101BD000416982693E4346EA051545EA042444EA20
:101BE000014141EA0262DA611D6A05F07F441C622C
:101BF000C4691D6A016A426A2C4344EA012141EA30
:101C000002421A62806AD862F0BC70470023036007
:101C100043608360C360036143618361C3610362A6
:101C200043628362704700BF4FF43043C4F2020343
:101C30000268F0B45A61996921F47F5424F03F0599
:101C40009D619E69476846EA07029A61596AC02405
:101C5000C0F2FC040C405C625F6A8668C568046977
:101C6000416982693E4346EA051545EA042444EA8F
:101C7000014141EA02625A629D6A05F07F449C621A
:101C8000C4699D6A016A426A2C4344EA012141EA1F
:101C900002429A62806A1863F0BC704700230360B6
:101CA00043608360C360036143618361C361036216
:101CB00043628362704700BF4FF43043C4F20203B3
:101CC000DA6918B922F02000D861704742F020018B
:101CD000D96170474FF43043C4F202035A6A18B90D
:101CE00022F020005862704742F02001596270478C
:101CF0004FF43043C4F20203DA6C19B922F0010048
:101D0000D864704722F47F4121F00102DA64D96C73
:101D100041F0010242EA0020D86470474FF430439A
:101D2000C4F20203986470474FF43043C4F20203D4
:101D30001A6819B922EA0000186070471043186049
:101D4000704700BF4FF43043C4F2020359680842A1
:101D50000CBF0020012070474FF43043C4F202034F
:101D6000986070474FF43043C4F202035A68196810
:101D700010EA010305D012EA10200CBF0020012058
:101D800070471846704700BF4FF43043C4F2020357
:101D9000000A9860704700BF10B4A0B14FF0204314
:101DA00043F2D20243F820204FF48273441CCAF25B
:101DB00000034FF020416FF0704241F8242043F8B7
:101DC000202010BC70474FF0204443F2DB0121601B
:101DD000EAE700BF2DE9F00F4368D0F80890C76824
:101DE0008469C169026AD0F828B0456BD0F800C098
:101DF00049EA030A03694AEA07071F4343691F4385
:101E00003C432143476A0A4342EA0703C16A026B23
:101E100043EA0B040C434FF0204614432C43B9F122
:101E2000080F46F82C402BD0B5F5801F31D0836BBE
:101E30001A69D3F818801F685E68D9689D685C6964
:101E400048EA070343EA061343EA052343EA01434A
:101E500043EA046343EA02520CF101014FF02043CC
:101E6000BBF5804F43F821202AD04FF48270CAF28C
:101E700000006FF0704140F82C10BDE8F00F704783
:101E800056F82C70B5F5801F47F0400346F82C300B
:101E9000CDD1BCF1000FCAD04FF02046836B7568DE
:101EA000346844F480113160326842F480773760DE
:101EB0001A6925F47004551E44EA05517160B8E7AB
:101EC000C36B93E824009E699C6818695969324382
:101ED00042EA051343EA04224FF4827342EA0050B7
:101EE000CAF2000340EA016143F82C10C5E700BFC5
:101EF00070B4022646601026C660846BC16B4FF436
:101F00008056066200230F22FF254FF4005603601F
:101F100083600361C36243618361C361466283621C
:101F20000363436322606260A560E26022616261D4
:101F3000A3610A604A608D60CA600A614A618B6170
:101F400070BC704759B94FF020424FF6FE7352F8FB
:101F50002010C0F20F030B4042F8203070474FF0C2
:101F6000204353F8202042F0010143F8201070472D
:101F700010280BD08023CAF200034FF0FC32182146
:101F80004020196058609A60DA6070476023F2E779
:101F90002DE9F00FC269D0F804B0D0F808A0036AA8
:101FA0001168D0F80C900769D2F808805668D3F809
:101FB00008C05D684469D26882B04BEA0A0A4AF0F8
:101FC000080A00914AEA09091968DB68019149EA9F
:101FD00007094FEA0848009F8169006848EA062619
:101FE0003E434FEA0C4C019F4CEA052549EA442444
:101FF0003D43102844EA413446EA026245EA03635D
:1020000009D08021CAF200010C608A60CB6002B066
:10201000BDE8F00F70476020CAF2000004608260E3
:10202000C360F4E730B4016AC469FC2300221025C0
:10203000056042608560C260026142618261236026
:102040006360A360E3600B604B608B60CB6030BC6F
:10205000704700BF49B1102814D08020CAF2000098
:10206000026842F0040303607047102812D08022F7
:10207000CAF200024FF6FB731168C0F20F030B4067
:10208000136070476021CAF20001086840F0040242
:102090000A6070476022EBE749B1102814D0802015
:1020A000CAF20000026842F0400303607047102843
:1020B00012D08022CAF200024FF6BF731168C0F23C
:1020C0000F030B40136070476021CAF200010868DB
:1020D00040F040020A6070476022EBE7102804D00D
:1020E0008023CAF20003586970476020CAF20000DA
:1020F00040697047A023CAF200034FF0FC32182158
:102100000020196058609A60DA601A61704700BF59
:10211000F0B407684668C468016942698568A0230D
:1021200047F01000CAF2000340EA462646EA453569
:102130001D6094E86000A068E468000440EA062698
:102140002E4346EA04659D6091E87000C86831043A
:1021500041EA0525254345EA0064DC6092E8310048
:10216000D1682A0442EA0422024342EA016018616B
:10217000F0BC704730B40169C4684269FC23002593
:1021800005604560856023606360A360E3600B6069
:102190004B608B60CB60136053609360D36030BC46
:1021A000704700BF50B9A022CAF200024FF6FB737D
:1021B0001168C0F20F030B4013607047A020CAF2F1
:1021C0000000026842F00403036070474FF4A073FC
:1021D000CAF2000310B4811C4FF4347443F8204059
:1021E00000226FF0704043F821001A615A619A6131
:1021F00010BC70472DE9F00382684668C568046921
:10220000C769D0F82090436A016816433543426994
:1022100086692C43144334433C4344EA09054FF494
:10222000A0721D43CAF20002F9B9816A156091E8F3
:10223000C0008D68CC6801F110030BCB013D013F5C
:102240002D0245EA0715013E3543013C45EA0434B9
:102250000138013944EA004040EA0150013B40EABC
:1022600003619160BDE8F003704749EA070848EA56
:1022700003071760836A42F82150D3F808C05D68ED
:102280001F68D8681E695C690CF1FF331B02013DB1
:1022900043EA0515013F01383D43731E013C00032D
:1022A000023145EA034340EA0450906042F821308D
:1022B000D8E700BF10B440240461826A8024102350
:1022C000446100214FF40074C3600160416081608B
:1022D0008461C16101624162136053609360D360A5
:1022E00013615361936110BC704700BF30B490E834
:1022F00022008268C46829434FF4A07341EA442055
:10230000013ACAF2000340EA4211196130BC704739
:102310004FF4A073CAF2000320B1986900F01801CD
:10232000880870479A6902F0060070474FF4A0735E
:10233000CAF200035A6942EA40005861704700BF80
:102340004FF4A073CAF200031A6942EA4010186100
:10235000704700BF4FF4A073CAF2000339B953F8B5
:10236000201047F6FF520A4043F82020704753F8E8
:10237000202042F4007143F8201070477AB11028F1
:1023800026D0B0F5807F39D0B0F5805F27D04FF4EC
:10239000A070CAF2000042691143416170471028E1
:1023A0000ED0B0F5807F21D0B0F5805F2DD04FF4F6
:1023B000A073CAF200035A6922EA01015961704709
:1023C0006020CAF20000426822EA010343607047BD
:1023D0006020CAF200004368194341607047A0239F
:1023E000CAF2000358680143596070478020CAF25E
:1023F0000000436823EA0101416070478023CAF26C
:1024000000035A68114359607047A020CAF20000C7
:10241000436823EA01024260704700BF102810D0D1
:10242000B0F5807F12D0B0F5805F14D04FF4A07368
:10243000CAF2000398690840091A4A4252EB0100A7
:1024400070476020CAF200004068F4E78023CAF2B7
:1024500000035868EFE7A022CAF200025068EAE7DA
:1024600010280ED0B0F5807F13D0B0F5805F18D063
:102470004FF4A073CAF200035A6922EA01015961BC
:1024800070476020CAF20000426822EA01034360FC
:1024900070478020CAF20000436823EA01014160CE
:1024A0007047A020CAF20000436823EA010242609C
:1024B000704700BF102810B420D0B0F5807F14D032
:1024C000B0F5805F23D04FF4A072CAF20002012859
:1024D0005369946901EA03020DD804F0010010B1B8
:1024E000101C18BF012010BC70478020CAF20000E9
:1024F000436803EA010203EAD100F0E76023CAF26D
:1025000000035B6801EA030203EAD100E7E7A023C6
:10251000CAF200035B68ECE710280ED0B0F5807FAC
:1025200013D0B0F5805F18D04FF4A073CAF2000347
:102530005A6942F00100586170476020CAF20000F9
:10254000436823EAD101416070478020CAF200004D
:10255000436823EAD10242607047A023CAF2000315
:102560005A6822EAD1015960704700BF08B50023BC
:10257000C4F20203984248D04FF48061C4F20201D1
:1025800088424CD04FF40062C4F20202904250D014
:102590004FF44063C4F20203984254D04FF4805188
:1025A000C4F20201884258D04FF4A052C4F2020291
:1025B00090425CD04FF4C053C4F20203984260D002
:1025C0004FF4E051C4F20201884264D04FF400524B
:1025D000C4F20202904268D04FF41053C4F20203D6
:1025E00098426ED04FF42051C4F20201884200D0CC
:1025F00008BD01214FF4806001F044F84FF4806081
:102600000021BDE8084001F03DB80120014601F07D
:1026100039F801200021BDE8084001F033B802205C
:10262000012101F02FF802200021BDE8084001F04F
:1026300029B80420012101F025F804200021BDE87B
:10264000084001F01FB80820012101F01BF8082004
:102650000021BDE8084001F015B81020012101F06B
:1026600011F810200021BDE8084001F00BB820202F
:10267000012101F007F820200021BDE8084001F009
:1026800001B84020012100F0FDFF40200021BDE8FD
:10269000084000F0F7BF8020012100F0F3FF802008
:1026A0000021BDE8084000F0EDBF01214FF480702B
:1026B00000F0E8FF4FF480700021BDE8084000F012
:1026C000E1BF01214FF4007000F0DCFF4FF4007017
:1026D0000021BDE8084000F0D5BF00BF2DE9F00F94
:1026E0000E6884B00022884613464FF0010B009616
:1026F0008A4607E0DDF80490A14539D04B1CAA1C9E
:10270000102B54D0009E0BFA03F5591C05EA060C59
:102710000BFA01F42640AC45019602F10205E9D11D
:10272000032606FA02F907689AF804806FEA090995
:102730004E463E4006600768CDF80C9008FA02F954
:1027400008F1FF3849EA0709B8F1010FC0F8009015
:1027500031D9C368039F9AF807C0DDF804903B4065
:10276000C360C3680CFA02F21A43A145C260C5D126
:10277000032304689AF80420AB40DB431C40046048
:10278000046802FA05FC013A4CEA0404012A0460D8
:1027900033D9C2689AF807401340C360C26804FA8C
:1027A00005F31343C3604B1CAA1C102BAAD104B021
:1027B000BDE8F00F7047D0F80880039E9AF80670C5
:1027C0009AF8059006EA0808C0F80880D0F8088052
:1027D00009FA02F949EA0808C0F80880D0F804802C
:1027E00028EA0C0CC0F804C0D0F8049007FA03F3F0
:1027F0009FB247EA09034360ABE786689AF8057021
:102800009AF806201E408660846807FA05FC4CEAA8
:10281000040686604768019E27EA06074760446809
:1028200002FA01F292B222434260B2E700234FF66D
:10283000FF720260037143718371C371704700BFFF
:1028400082B04FF480330193019A41EA020301936D
:10285000019AC261C1610199C161C3690193C069F3
:10286000019002B0704700BF036919420CBF0020FD
:1028700001207047006980B2704700BF4369194268
:102880000CBF002001207047406980B2704700BF34
:1028900001837047418370470AB9418370470183C0
:1028A000704700BF416170474369594041617047BB
:1028B000CB08083301F0070130B4890050F82350E9
:1028C0000F2404FA01F425EA040440F8234050F8E8
:1028D000234002FA01F2144340F8234030BC704711
:1028E00008B54FF4A843C4F20003984218D04FF43F
:1028F000B041C4F2000188421ED04FF4B842C4F285
:102900000002904200D008BD01214FF4000000F009
:10291000E3FE4FF400000021BDE8084000F0DCBEFB
:1029200001214FF4001000F0D7FE4FF400100021F9
:10293000BDE8084000F0D0BE01214FF4800000F057
:10294000CBFE4FF480000021BDE8084000F0C4BE7B
:10295000F0B5044685B06846A6880D4600F07EFDB9
:1029600002992A684DF68363C4F21B3326F03F07B1
:10297000A3FB010338049F0C060C1FFA87FC4CEAEA
:102980000603A380208820F0010648F2A0603304EB
:10299000C0F201001E0C8242268024D85300B1FBF5
:1029A000F3F6B1B20CF1010EA4F820E0032998BFB0
:1029B0000421A1832388AA896E89A88829899BB2CA
:1029C00043F001032380238823F4816323F002036F
:1029D0001B041B0C3043034311439BB28AB2238078
:1029E000228105B0F0BDE8884BF6FF7398421DD0F8
:1029F00002EB820202EB8206B1FBF6F141F4804069
:102A000081B20E05300D08B941F001014FF4967303
:102A100044F6D352C1F2620203FB07F782FB07368A
:102A2000B009421C41F400412284C2E702EB420398
:102A3000B1FBF3F291B2E4E7002341F288328380E4
:102A40004BF6FF71038143814FF480430260C180E4
:102A500083817047038829B923F001010A04130C0C
:102A60000380704799B241F001020280704700BFB5
:102A7000838C21B999B241F010028284704723F00F
:102A8000100319040A0C8284704700BF838C23F062
:102A90000F02130401F00F011A0C114381847047D7
:102AA000038829B923F480710A04130C038070474A
:102AB00099B241F480720280704700BF038829B93F
:102AC00023F400710A04130C0380704799B241F497
:102AD00000720280704700BF1AB901F0FE01018246
:102AE000704741F001010182704700BF038829B996
:102AF00023F480610A04130C0380704799B241F4F7
:102B000080620280704700BF838923F0FE021304B5
:102B100001F0FE011A0C114381817047838929B9A4
:102B200023F001010A04130C8381704799B241F02C
:102B300001028281704700BF038829B923F0400158
:102B40000A04130C0380704799B241F040020280DE
:102B5000704700BF038819B959044A0C02807047B6
:102B60006FEA43436FEA53418AB20280704700BF65
:102B7000038829B123F080010A04130C03807047F5
:102B800099B241F080020280704700BFB1F5804FDA
:102B9000838B05D023F4804319040A0C8283704789
:102BA00099B241F480428283704700BFB1F5006F53
:102BB000038805D023F400610A04130C03807047D6
:102BC00099B241F400620280704700BFB1F5005F26
:102BD000038805D023F400510A04130C03807047C6
:102BE00099B241F400520280704700BF038829B9AE
:102BF00023F010010A04130C0380704799B241F0CE
:102C000010020280704700BF01827047008AC0B284
:102C1000704700BF038829B923F480510A04130CBC
:102C20000380704799B241F480520280704700BF20
:102C3000B1F5006F038805D023F400610A04130C7A
:102C40000380704799B241F400620280704700BF70
:102C5000038829B923F020010A04130C038070476C
:102C600099B241F020020280704700BF008BC0F390
:102C700007207047838829B923F400610A04130CE4
:102C80008380704799B241F400628280704700BF30
:102C9000838829B923F480510A04130C8380704778
:102CA00099B241F480528280704700BF82B0002305
:102CB00001930190019809180191019A138898B223
:102CC00002B0704783889BB21AB923EA0101818060
:102CD0007047194381807047828A038B90B240EA23
:102CE00003420A4022F07F43C91A484248417047D4
:102CF000828A038B90B240EA034121F07F40704703
:102D000082B000230A0F0093019301900092009873
:102D100021F07F4150B1019A143201920198036869
:102D200019420CBF0020012002B07047019B1833EC
:102D3000090C0193F2E700BFC9438AB2828270474F
:102D40008388808A82B211EA02009BB206D001F029
:102D5000E06113EA11410CBF00200120704700BF61
:102D6000C9438AB28282704708B501214FF0806062
:102D700000F0C0FC4FF080600021BDE8084000F08A
:102D8000B9BC00BF4FF4D043C4F201034FF4784202
:102D90009968CFF20002114070B499609D6844694F
:102DA000066945EA040141EA06459D60DC68144075
:102DB000DC60DE68C569816946EA050444EA0146CB
:102DC000DE601D6915401D611E69446A016A46EA9C
:102DD000040545EA01461E615C6922405A615D694D
:102DE000C16A826A45EA010646EA02445C619D695D
:102DF00048F68F01C0F6FE71294099619E69056809
:102E000044688168C26835432C4321430A439A6170
:102E1000DD6A446B016B05F07F42DA62806BDD6A2C
:102E200045EA000242EA042040EA0141D96270BC4E
:102E3000704700BF0023036043608360C360036189
:102E400043618361C361036243628362C36203635C
:102E500043638363704700BF4FF4D043C4F2010360
:102E60009A6918B922F001009861704742F0010197
:102E7000996170474FF4D043C4F201039A6918B9BD
:102E800022F480309861704742F480319961704734
:102E90004FF4D043C4F2010348F68F029969C0F69B
:102EA000FE720A4010B49A619C6999699A69C4F3E8
:102EB0000214C1F30221C2F3023204604160826055
:102EC00010BC70470223036043608360704700BFFB
:102ED0004FF4D043C4F20103186470474FF4D04359
:102EE000C4F2010358627047F0B491E830004368BF
:102EF000CF688E6803F4704244EA0544426044603F
:102F000085680A6A46EA074305F47047CD69876019
:102F1000140483608A69066944EA052343EA0205CA
:102F20000C694B6A26F00706066145EA03650461F1
:102F3000002682698661856142694B6922F0FF043F
:102F400044614361C5698C6ACB6A25F4E06222F072
:102F5000070523430A6BC561C361836A8662826287
:102F6000C56A8C6B4A6BCB6B42EA044205F0E021E8
:102F7000C162C262016B21F4FF6222F007010163AA
:102F80000363F0BC704700BFFF22002342614FF48F
:102F9000C0610722036043608360C3600361836193
:102FA000C361036243628162C262036343638363FA
:102FB000C3637047036819B923F0010101607047CA
:102FC00043F00102026070474FF4D043C4F20103A2
:102FD0005A6C00225A64596C5A6C090C92B280E8FF
:102FE0000600704700230360436070474FF4D043EE
:102FF000C4F20103996C08420CBF00200120704705
:1030000030B45AB9036823F0020101604FF4D04094
:10301000C4F201000123436230BC704705684C686C
:103020008A680B6845F002010160C16801F07F41C8
:10303000C160C1680B4343EA042141EA0242C26015
:10304000E4E700BF0023036043608360704700BF74
:10305000036849B923F0100101604FF4D040C4F275
:10306000010001234362704743F010020260F4E75D
:1030700030B491E83400CB68190441EA05232343B6
:1030800043EA0262026430BC704700BF0023036061
:1030900043608360C360704770B4446804F4704553
:1030A000456086684FF4D04306F47044C4F20103CF
:1030B0008460DE680369B5B201EB16416C1C013116
:1030C000A218FBB1012B21D0042B1DD0022B1BD049
:1030D000032B19D0072B17D00126C56A036BEC040C
:1030E000E50C5B05EC1E5B0D4D1EB4FBF6F4013BDD
:1030F0002C199B1841EA044142EA03424160826074
:1031000070BC70470426E8E70226E6E70326E4E7FA
:1031100041617047816270470369F0B41BB3012BB2
:1031200025D0042B21D0022B1FD0032B1DD0072B21
:103130001BD0012544688668E704F304FC0CDB0C13
:1031400001FB05F5661E5F1E7118BF18EE1C44EAF0
:10315000014443EA074346EA054544608360C5628B
:103160000263F0BC70470425E4E70225E2E703258B
:10317000E0E700BF03695BB1012B2CD0042B21D009
:10318000022B1FD0032B1DD0072B1BD0012200E0E8
:103190000422C36A1B0CB3FBF2F3D1B101291CD08A
:1031A00004291CD002291CD0032918D0072914BFD8
:1031B0000122022203FB02F3DA1C42EA0343C36248
:1031C00001617047C36A02221B0CB3FBF2F30029B2
:1031D000E4D10422EEE70322DBE70322EAE702223E
:1031E000E8E70A46E6E700BF4FF4D043C4F2010324
:1031F0005A6B19B922EA00005863704710435863AC
:10320000704700BF4FF4D043C4F20103996B0842EA
:103210000CBF0020012070474FF4D043C4F20103DB
:10322000D86370474FF4D043C4F201039A6B596BD3
:1032300010EA010304D010420CBF002001207047A7
:10324000184670474FF4D043C4F20103D863704767
:103250004FF46053C4F202030022196841F00100E8
:1032600030B418609A601D684FF44050014643F234
:10327000100425F0A855C2F20000C2F2004125F466
:103280001025C2F200441D605C60C3F88400C3F8DE
:103290008810186820F480211960DA60C3F88C2047
:1032A00030BC704743F60203C4F2020300221A70D6
:1032B0001870704782B04FF4605200230193C4F23B
:1032C0000202106883030CD5019A511C0191019BE5
:1032D0004FF46053C4F202031868C0F3404002B0D8
:1032E000704701994B1C01930198B0F5A04FE8D1AC
:1032F000EEE700BF4FF46053C4F202031A6822F0F5
:10330000F80141EAC0001860704700BF0023C4F212
:1033100047231860704700BF43F67003C4F20203EE
:10332000002201281A701A7004D0042801D1052047
:1033300018707047187070474FF46863C4F24723E1
:103340001860704730B40143029D41EA82125B0865
:103350004FF4605442EA0565591EC4F2020445EA7E
:103360000140606030BC70476023C4F2472318609E
:10337000704700BF80014FF4605340EA0161C4F21E
:10338000020341EA0272C3F8842070476823C4F242
:1033900047231860704700BF80014FF4605340EA34
:1033A0000161C4F2020341EA0272C3F88820704747
:1033B0007023C4F247231860704700BF4C23C4F247
:1033C00047231860704700BF4FF46053C4F20203F4
:1033D0009A6822F0EC62104301439960704700BF85
:1033E0004FF46053C4F202039A6822F0784210430B
:1033F00001439960704700BF4FF46053C4F2020369
:103400009A6822F003010843986070474FF46053B4
:10341000C4F20203986800F00C0070474FF4605348
:10342000C4F202039A6822F0F001084398607047E2
:103430004FF46053C4F202039A6822F4E051084347
:10344000986070474FF46053C4F202039A6822F404
:10345000604141EAC0009860704700BF4FF460537C
:10346000C4F2020310B49A6802F00C01042922D0BD
:10347000082926D04FF41052C0F2F40202604FF433
:103480006053C4F2020321499C68C4F303140C5D29
:1034900022FA04F242609C68C4F382240C5D22FA92
:1034A00004F484609B68C3F34233C95C22FA01F2DE
:1034B000C26010BC70474FF49052C0F27A020260B2
:1034C000DDE75C68596814F4800F5C6801F03F0226
:1034D00014BF4FF490534FF41053C4F388114FF4BA
:1034E000605414BFC0F27A03C0F2F403C4F20204C1
:1034F000B3FBF2F303FB01F26168C1F301435C1C0F
:103500006100B2FBF1F20260B9E700BF18000020D1
:1035100000F44073B3F5407F0CD14FF46053C4F214
:10352000020320F070419A6821F4407122F4F812ED
:10353000114399604FF46053C4F2020300051A6FFF
:10354000010D11431967704740F63C63C4F24723ED
:10355000186070474FF46463C4F2472318607047E3
:103560004FF4AE73C4F24723186070474FF46053B2
:10357000C4F202030138D3F88C2022F01F01084363
:10358000C3F88C00704700BF4FF46053C4F20203CD
:103590000138D3F88C2022F4F85141EA0020C3F816
:1035A0008C0070474FF46053C4F20203D3F88C20B0
:1035B00022F440110843C3F88C0070474FF4605365
:1035C000C4F20203D3F88C2022F440010843C3F86C
:1035D0008C0070474FF46053C4F20203D3F88C2080
:1035E00022F440310843C3F88C0070474FF48F53E6
:1035F000C4F24723186070474FF46053C4F20203CB
:103600001A6B19B922EA0000186370471043186357
:10361000704700BF4FF46053C4F202035A6B19B9EC
:1036200022EA00005863704710435863704700BF98
:103630004FF46053C4F202039A6B19B922EA0000F6
:103640009863704710439863704700BF4FF460530E
:10365000C4F202031A6C19B922EA00001864704718
:1036600010431864704700BF4FF46053C4F2020364
:103670005A6C19B922EA0000586470471043586424
:10368000704700BF4FF46053C4F202031A6919B9BE
:1036900022EA00001861704710431861704700BFAC
:1036A0004FF46053C4F202035A6919B922EA0000C8
:1036B0005861704710435861704700BF4FF4605322
:1036C000C4F202039A6919B922EA000098617047AE
:1036D00010439861704700BF4FF46053C4F2020377
:1036E0001A6A19B922EA000018627047104318627A
:1036F000704700BF4FF46053C4F202035A6A19B90D
:1037000022EA00005862704710435862704700BFB9
:103710004FF46053C4F202031A6D19B922EA000093
:103720001865704710431865704700BF4FF4605329
:10373000C4F202035A6D19B922EA000058657047B5
:1037400010435865704700BF4FF46053C4F2020342
:103750009A6D19B922EA0000986570471043986580
:10376000704700BF4FF46053C4F202031A6E19B9D8
:1037700022EA00001866704710431866704700BFC1
:103780004FF46053C4F202035A6E19B922EA0000E2
:103790005866704710435866704700BF43F60D03E4
:1037A000C4F202031A7819B922EA000018707047AF
:1037B00010431870704700BF4309012B0ED04FF41F
:1037C0006051C4F20201022B0CBF096F496F00F077
:1037D0001F0021FA00F303F0010070474FF460521C
:1037E000C4F202021168F2E74FF46053C4F202031C
:1037F0005A6F42F080705867704700BF4FF46053B3
:10380000C4F20203D96808420CBF002001207047AF
:1038100043F60E03C4F202031870704708B54FF464
:103820008053C4F20103984236D04FF48841C4F269
:10383000000188423AD04FF49042C4F20002904214
:1038400040D04FF49843C4F20003984246D04FF45E
:10385000A041C4F2000188424CD04FF4A052C4F2FF
:103860000102904252D04FF4F043C4F20003984258
:1038700056D04FF4F841C4F20001884200D008BD90
:1038800001214FF00040FFF727FF4FF000400021DB
:10389000BDE80840FFF720BF10200121FFF72AFFF5
:1038A00010200021BDE80840FFF724BF01214FF49C
:1038B0000030FFF711FF4FF400300021BDE8084051
:1038C000FFF70ABF01214FF48020FFF705FF4FF4F7
:1038D00080200021BDE80840FFF7FEBE01214FF423
:1038E0000020FFF7F9FE4FF400200021BDE808405A
:1038F000FFF7F2BE01214FF48010FFF7EDFE4FF409
:1039000080100021BDE80840FFF7E6BE202001211D
:10391000FFF7F0FE20200021BDE80840FFF7EABED7
:1039200001214FF08040FFF7D7FE4FF0804000218B
:10393000BDE80840FFF7D0BE028ACB8822F440528F
:103940001204F0B5120C04461A4348890F898E8878
:103950000D4689892282A38923F4B05222F00C03F8
:103960003E431A040643B3B2100C43EA0006A68194
:10397000A28A22F4407003041E0C0E4385B0A68276
:103980006846FFF76BFD4FF48051C4F201018C4291
:103990002CD04FF4A052C4F20102944226D0A08948
:1039A000029B06B2002E26DB2D6803EB830101EBA0
:1039B0008102AB00B2FBF3F148F21F53A089C5F2BC
:1039C000EB13A3FB0156720900B26425160100280F
:1039D00002FB151118DB0D013235A3FB0553C3F3B0
:1039E0004312324391B2218105B0F0BDA089039BFF
:1039F00006B2002ED8DA286803EB830606EB8605AC
:103A00004200B5FBF2F1D7E7C8003230A3FB001348
:103A1000C3F342123243E5E700234FF416520C2160
:103A200002608380C380038141818381704700BF2E
:103A30000A88038A30B44D888C88C9882A4323F4C5
:103A4000706322431B040A4392B2190C42EA010339
:103A5000038230BC704700BF002303804380838013
:103A6000C3807047838929B923F400510A04130CD9
:103A70008381704799B241F400528281704700BF40
:103A8000038B03F47F420283038B9AB211430183B9
:103A9000704700BF838919B959044A0C8281704765
:103AA0006FEA43436FEA53418AB28281704700BF95
:103AB000838A29B923F400610A04130C83827047B6
:103AC00099B241F400628282704700BFC905CA0DF5
:103AD000828070478088C105C80D7047038A23F033
:103AE0000F0213041A0C0282038A9AB21143018254
:103AF000704700BF838929B923F002010A04130C1F
:103B00008381704799B241F002028281704700BF01
:103B1000838923F4006213041A0C828183899AB288
:103B200011438181704700BF038A23F020021304F0
:103B30001A0C0282038A9AB211430182704700BFB5
:103B4000038A29B923F480410A04130C03827047C5
:103B500099B241F480420282704700BF838999B2D2
:103B600041F0010282817047838A29B923F008015C
:103B70000A04130C8382704799B241F008028282D2
:103B8000704700BF038BDAB20283038B9AB242EA1A
:103B900001210183704700BF838A29B923F02001E6
:103BA0000A04130C8382704799B241F0200282828A
:103BB000704700BF838A29B923F010010A04130C4F
:103BC0008382704799B241F010028282704700BF31
:103BD000838A23F0040213041A0C8282838A9AB225
:103BE00011438182704700BF838A29B923F0020103
:103BF0000A04130C8382704799B241F00202828258
:103C0000704700BF838A9BB21AB923EA01018182FF
:103C1000704719438182704701F01F0310B4C1F34C
:103C200042110124A14204FA03F30DD002290DD060
:103C300014302AB9026822EA0301016010BC7047FF
:103C4000026813430360F9E70C30F2E71030F0E745
:103C5000038819420CBF002001207047C9438AB273
:103C60000280704710B4C1F34213012401F01F0217
:103C7000A34204FA02F214D0022B0CBF038A838AF7
:103C80009BB21340008882B24BB1090A012303FAA8
:103C900001F010420CBF0020012010BC70471846F4
:103CA000FBE783899BB21340ECE700BF090A0123BD
:103CB00003FA01F2D1438BB20380704708B54FF489
:103CC0004053C4F2010398422AD04FF46051C4F229
:103CD0000001884230D04FF47052C4F2000290428A
:103CE00036D04FF45053C4F2010398423CD04FF405
:103CF000A041C4F20101884242D04FF4A842C4F26C
:103D00000102904200D008BD01214FF40010FFF7DE
:103D1000F1FC4FF400100021BDE80840FFF7EABCB9
:103D200001214FF48050FFF7E5FC4FF48050002153
:103D3000BDE80840FFF7DEBC01214FF48040FFF7EB
:103D4000CBFC4FF480400021BDE80840FFF7C4BC25
:103D500001214FF40040FFF7BFFC4FF40040002169
:103D6000BDE80840FFF7B8BC01214FF40050FFF751
:103D7000C1FC4FF400500021BDE80840FFF7BABC79
:103D800001214FF48010FFF7B5FC4FF480100021A3
:103D9000BDE80840FFF7AEBC2DE9F0070B88B1F88D
:103DA00002A0B1F80490B1F80680B1F808C04F89BC
:103DB0008E89CC890A8A05884AEA030141EA090307
:103DC00043EA080141EA0C033B43334305F4415104
:103DD00023430B4399B20180838B23F400610B04CE
:103DE000190C81830282BDE8F0077047838B8A68D3
:103DF0002DE9F00323F47B6424F00F052E04370C27
:103E0000022387830384848B9A42A6B25CD04FF44A
:103E10006057C4F202078C88BD68002C0CBF4FF0BD
:103E200020084FF040082D0249D44FF46053C4F2EB
:103E300002034FF49055D3F884C0D3F88470D3F8BC
:103E40000490CB8809F03F09C0F27A05B5FBF9F57B
:103E5000CCF3881C0CFB05F5C7F30277B3F5007FA4
:103E6000B5FBF7F533D0B5FBF8F707EB87056F0027
:103E7000B7FBF2F2551DAFB24CF6CD45CCF6CC45B2
:103E8000A5FB0772D2085508AF1E02F00102FD2FF4
:103E900094BF45EA02220222B1F800C04F888D8902
:103EA00046EA0C0141F400613943294313438AB2C5
:103EB000144399B201848483BDE8F0037047BB6862
:103EC00023F40005BD60B0E78C88CB88E4E72D0AB9
:103ED00005EB85077D00B5FBF2F2571DBFB2CBE7BE
:103EE00000230721038043808380C38003814381B3
:103EF0008381C381018270470023022203604360F3
:103F000082608381704700BF038829B923F0400194
:103F10000A04130C0380704799B241F040020280FA
:103F2000704700BF838B29B923F480610A04130C06
:103F30008383704799B241F480628283704700BFE7
:103F4000038823F4006213041A0C028003889AB2D7
:103F500011430180704700BFB1F5804F038805D041
:103F600023F480410A04130C0380704799B241F492
:103F700080420280704700BF4FF6FF63994201887C
:103F800004D08AB242F480730380704721F48072B7
:103F90001304190C01807047838829B923F00401A8
:103FA0000A04130C8380704799B241F004028280A6
:103FB000704700BF838829B923F010010A04130C4D
:103FC0008380704799B241F010028280704700BF31
:103FD000838B0A8870B423F47B6424F00F052E04CD
:103FE000330C022483830484858BB2F5007FABB24B
:103FF00002D00AB1002601E04FF480764D888C880B
:1040000089892B4343F4006222430A4393B233432A
:10401000838370BC704700BF808980B2704700BF47
:1040200081817047038829B923F400510A04130CD5
:104030000380704799B241F400520280704700BF7C
:10404000038899B241F4805202807047012914BF5D
:10405000008B808A80B27047008A80B2704700BFB0
:1040600083889BB21AB923EA010181807047194302
:10407000818070470123090903FA01F1838889B21D
:104080009BB21AB923EA01028280704719438180EA
:10409000704700BF038919420CBF00200120704700
:1040A000C9438AB20281704710B484880089012212
:1040B00001F00F0380B202FA03F31840A4B206D055
:1040C000090902FA01F214420CBF0020012010BCC1
:1040D000704700BF01F00F01012303FA01F2D14341
:1040E0008BB20381704700BF4FF47053C4F20103D9
:1040F0004FF6FF710022C0F27F011A605A609A6089
:10410000DA605961704700BF837970B43BB34FF4F4
:104110007053C4F2010301681E6802794579CC43EB
:1041200026401E605E6802F1804202F59E323440F5
:104130005C6014682143116002689868D1430840AC
:104140009860D868102D01EA0001D96013D005F1FC
:10415000804505F59E352B681A432A6009E00279EF
:10416000016802F1804000F59E331A6822EA0102DC
:104170001A6070BC7047996811439960D86802430F
:10418000DA60F6E700230C22036003714271837149
:10419000704700BF4FF47053C4F201031A69104313
:1041A000186170474FF47053C4F201035969084213
:1041B0000CBF0020012070474FF47053C4F201037C
:1041C000586170474FF47053C4F2010359690842B3
:1041D0000CBF0020012070474FF47053C4F201035C
:1041E0005861704708B501214FF48040FFF782FA0B
:1041F0004FF480400021BDE80840FFF77BBA00BFC4
:104200004FF46053C4F20103186070472023C4F2D6
:1042100027231860704700BF8A084FF46053C4F228
:104220000103023201F0030130B4890053F8225037
:104230000F2404FA01F425EA040443F8224053F859
:10424000224000FA01F0044343F8224030BC70479A
:10425000DC23C4F227231860704700BF4FF480634B
:10426000C4F22723186070474FF46053C4F201036F
:10427000186AC0F30020704708B50023C4F2010398
:1042800098425BD0B0F1804F62D04FF48061C4F2AD
:104290000001884266D04FF40062C4F200029042EE
:1042A0006AD04FF44063C4F2000398426ED04FF4DA
:1042B0008051C4F20001884272D04FF4A052C4F27F
:1042C0000002904276D04FF48063C4F2010398421A
:1042D0007AD04FF48041C4F2010188427ED04FF47D
:1042E0008842C4F20102904200F084804FF490436F
:1042F000C4F20103984200F089804FF4C051C4F227
:104300000001884200F08E804FF4E052C4F20002B7
:10431000904200F091804FF40053C4F200039842A1
:1043200000D008BD01214FF48070FFF7D5F94FF49C
:1043300080700021BDE80840FFF7CEB9012001469A
:10434000FFF7D8F901200021BDE80840FFF7D2B9F6
:1043500001200146FFF7C0F901200021BDE8084017
:10436000FFF7BAB902200121FFF7B6F902200021B8
:10437000BDE80840FFF7B0B904200121FFF7ACF910
:1043800004200021BDE80840FFF7A6B9082001215C
:10439000FFF7A2F908200021BDE80840FFF79CB90B
:1043A00010200121FFF798F910200021BDE80840F6
:1043B000FFF792B920200121FFF78EF9202000217C
:1043C000BDE80840FFF788B902200121FFF792F904
:1043D00002200021BDE80840FFF78CB901214FF40D
:1043E0008030FFF787F94FF480300021BDE80840A6
:1043F000FFF780B901214FF40030FFF77BF94FF44C
:1044000000300021BDE80840FFF774B901214FF4E6
:104410008020FFF76FF94FF480200021BDE80840AD
:10442000FFF768B940200121FFF756F9402000212D
:10443000BDE80840FFF750B980200121FFF74CF993
:1044400080200021BDE80840FFF746B9002203881C
:10445000C4F20102904270B49BB21AD04FF4806251
:10446000C4F20102904214D0B0F1804F11D04FF449
:104470008062C4F2000290420BD04FF40062C4F29A
:104480000002904205D04FF44062C4F20002904214
:1044900005D14FF68F724C881A4042EA04034FF45C
:1044A0008052C4F20002904221D04FF4A052C4F2D4
:1044B000000290421BD04FF6FF420E894C680D88D7
:1044C0001A400023C4F20103324398420280C462BE
:1044D000058509D04FF48062C4F20102904203D0F6
:1044E0000123838270BC7047897A0186F8E70380D4
:1044F0004A680988C2620185F2E700BF00234FF0D5
:10450000FF3141600380038143808372704700BFA5
:1045100001858282704700BF038823F07002130474
:104520001A0C11430180704741627047C1627047A5
:10453000406A7047008D80B2704700BF038829B978
:1045400023F002010A04130C0380704799B241F072
:1045500002020280704700BF038829B923F00401DA
:104560000A04130C0380704799B241F004020280E0
:10457000704700BF038829B923F080010A04130C97
:104580000380704799B241F080020280704700BFFB
:10459000038823F0080213041A0C028003889AB2DD
:1045A00011430180704700BF038823F44072130455
:1045B0001A0C028003889AB211430180704700BF31
:1045C000038829B923F001010A04130C0380704702
:1045D00099B241F001020280704700BF2DE9F0015D
:1045E000048CB1F802C08E890F8824F001021304F4
:1045F0001D0C0584048C8588028B24F0020322F0B4
:104600007304220400241B044CEA0606C4F20104CD
:10461000120C1B0CB6B2A042ADB242EA070246EA47
:1046200003030DD04FF48064C4F20104A04207D00C
:1046300089688580028341630384BDE8F001704787
:104640004FF6F774B1F80EC0B1F812800F8A8E8859
:104650001C4044EA0C0C4FF6FB734FF6FF4448EA4B
:1046600007072C400CEA0303BDB233432543DFE7C1
:104670002DE9F003048C8D890F884E8824F01002F8
:1046800013041C0C0484028C8488038B22F0200207
:104690001204120C23F4E6431B0442EA051200251F
:1046A0001B0CC4F2010543EA072342EA0612A842A2
:1046B000A4B29BB292B20DD04FF48065C4F2010552
:1046C000A84207D089688480038381630284BDE89F
:1046D000F00370474FF67F76B1F80E90B1F8108076
:1046E000B1F804C04F8A16404FF2FF35254046EA24
:1046F00009164FF6BF72324045EA880442EA0C12AE
:1047000044EA870492B2A4B2DCE700BF2DE9F003CB
:10471000048C8D894F880E8824F4807213041C0C3D
:104720000484028C8488838B22F400721204120C9D
:1047300042EA052223F0730300251B04C4F201059D
:104740001B0C42EA0722A842A4B243EA060392B233
:104750000DD04FF48065C4F20105A84207D08968E6
:1047600084808383C1630284BDE8F00370474FF205
:10477000FF76B1F80E90B1F81080B1F804C04F8AFE
:1047800016404CF6FF75254046EA09264FF6FF32E3
:10479000324045EA081442EA0C2244EA071492B275
:1047A000A4B2DCE7F0B4048CB1F80CC00F884E88DA
:1047B00024F4805213041D0C0584048C8588838B9B
:1047C00024F40052120423F4E6442304140C44EAB3
:1047D0000C3200241B0CC4F2010443EA072342EA12
:1047E0000632A042ADB29BB292B20CD04FF48064BC
:1047F000C4F20104A04206D08968858083830164E5
:104800000284F0BC70474BF6FF740E8A2C4044EAD9
:104810008615ADB2F0E700BF00230380438083809C
:1048200083608381C381038243827047038C10B409
:1048300001249BB204FA01F423EA0404048400F185
:10484000180379B108290DD00439C1F34E0148F697
:10485000FF70CC582040C8501202C85892B2104382
:10486000C85008E049084FF68F70CC582040C85017
:10487000C8580243CA5010BC704700BF416370471C
:1048800081637047C163704701647047038B23F0F5
:10489000700213041A0C114301837047038B23F435
:1048A000E04213041A0C42EA01218BB203837047E1
:1048B000838B23F0700213041A0C11438183704719
:1048C000838B23F4E04213041A0C42EA01218BB2D9
:1048D00083837047038B23F0080213041A0C1143DF
:1048E00001837047038B23F4006213041A0C42EA1D
:1048F00001218BB203837047838B23F008021304DA
:104900001A0C114381837047838B23F400621304D4
:104910001A0C42EA01218BB283837047038B23F088
:10492000040213041A0C114301837047038B23F410
:10493000806213041A0C42EA01218BB20383704790
:10494000838B23F0040213041A0C114381837047F4
:10495000838B23F4806213041A0C42EA01218BB288
:1049600083837047038B23F0800213041A0C1143D6
:1049700001837047038B5A04530C43EA01218AB226
:1049800002837047838B23F0800213041A0C1143B7
:1049900081837047838B5A04530C43EA01218AB206
:1049A00082837047038C23F0020213041A0C114314
:1049B00001847047038C23F0080213041A0C11437E
:1049C00001847047038C23F0200213041A0C42EA7E
:1049D00001118BB203847047038C23F0800213040F
:1049E0001A0C42EA01118BB203847047038C23F442
:1049F000007213041A0C42EA01218BB2038470473F
:104A0000038C23F4006213041A0C42EA01218BB2D6
:104A100003847047038C23F4005213041A0C42EAF7
:104A200001318BB20384704710B4048C012303FA64
:104A300001F3A4B224EA03030384038C02FA01F213
:104A400042EA03018AB2028410BC704710B4048C9D
:104A5000042303FA01F3A4B224EA03030384038CBE
:104A600002FA01F242EA03018AB2028410BC7047E2
:104A70000B88F0B4002B32D0042B58D0082B028CBA
:104A80004E8800F082808F880D89CC8822F4805176
:104A90000B041A0C0284818B038C21F4407223F4E2
:104AA000005112054B045B0C110D41EA072243EA49
:104AB00006318BB242EA053291B243F480528183CF
:104AC0000284838B23F440610A04130C8383818B5B
:104AD0008AB242EA042399B28183F0BC7047038C06
:104AE0004E888D880F89CC8823F001010A04130CAD
:104AF0000384018B038C21F0F30211040A0C23F0D0
:104B00000A0342EA07111B048AB21B0C46F001019A
:104B10000B432A4302830384028B22F00C03190403
:104B20000A0C0283038B99B221430183D5E7028CDF
:104B30004E888D880F89CC8822F010010B041A0C46
:104B40000284018B038C21F44072110523F0A00331
:104B50000A0D190442EA07320B0C43EA061391B21C
:104B600041EA052299B241F0100392B20283038414
:104B7000018B21F440621304190C0183028B93B260
:104B800043EA04218AB20283A7E722F48072130465
:104B90008D880F89CC88190C0184828B038C22F0BC
:104BA000F30123F420630A041904120C0B0C43EAEA
:104BB000062342EA07118AB299B241F480732A436C
:104BC00082830384828B22F00C010B041A0C8283F3
:104BD000818B8BB2234383837FE700BF00230122B5
:104BE000038043808280C380038170474A888B881A
:104BF0002DE9F0010C88002A0CBF02260026012BAB
:104C000014BF4FF480754FF4007514BF4FF00108C6
:104C10004FF00208002C53D0048CB1F808C0CF88A4
:104C200024F010010D042D0C0584048B018C24F458
:104C30004074240521F0A001240D0904090C44EA64
:104C40000C3441EA0212A4B291B244EA032341F0C7
:104C500010029BB203830284018B21F440631A0487
:104C6000110C0183038B9AB242EA07218BB20383B2
:104C7000028C22F001010B041A0C0284018B038CBC
:104C800021F0F302110423F00A030A0C19040B0C9F
:104C900042EA0C1291B243F0010241EA08081643BD
:104CA000A0F818800684038B23F00C010A04130C6F
:104CB0000383018B8AB217430783BDE8F001704775
:104CC000048CB1F808C0CF8824F001010C04210C39
:104CD0000184018B048C21F0F3010904090C24F0F8
:104CE0000A0441EA0C11240489B242F00102240CA6
:104CF0000B43144303830484018B21F00C0213043F
:104D0000190C0183028B93B23B430383018C21F086
:104D100010021304190C0184028B038C22F44071DD
:104D20000A0523F0A003110D1B0441EA0C32190CF3
:104D300041F0100392B2154343EA06160583068438
:104D4000018B21F440621304190C0183028B93B28E
:104D500043EA0727BFB20783AFE700BF406B704746
:104D6000806B7047C06B7047006C7047038B23F0FB
:104D70000C0213041A0C0283038B9AB211430183B1
:104D8000704700BF038B23F4406213041A0C0283A4
:104D9000038B9AB242EA01218BB20383704700BFB2
:104DA000838B23F00C0213041A0C8283838B9AB238
:104DB00011438183704700BF838B23F44062130447
:104DC0001A0C8283838B9AB242EA01218BB28383CD
:104DD000704700BF0B88B1F802C08A89F0B48F8891
:104DE000CE880D894C894CEA03013943314329436C
:104DF000214311438BB2A0F84430F0BC704700BF90
:104E00000023038043808380C380038143818381A7
:104E1000704700BFB0F8443021B959044A0CA0F8DB
:104E2000442070476FEA43436FEA53418AB2A0F8C7
:104E300044207047838829B923F004010A04130C25
:104E40008380704799B241F004028280704700BFAE
:104E5000838829B923F001010A04130C8380704769
:104E600099B241F001028280704700BF83899BB2F2
:104E70001AB923EA01018181704719438181704782
:104E800081827047038A19420CBF002001207047BD
:104E9000C9438AB202827047038A828911EA0300F9
:104EA00092B203D011420CBF00200120704700BF16
:104EB000C9438AB2028270470A43A0F8482070476B
:104EC00083899BB21AB923EA010181817047194392
:104ED00081817047838829B923F008010A04130CE3
:104EE0008380704799B241F008028280704700BF0A
:104EF000038923F007010A04130C0381704700BFE4
:104F0000038923F0700213041A0C114301810189F3
:104F10008BB243F007020281704700BF602970B472
:104F200027D0068C26F0010425042E0C0684058B60
:104F3000048C25F0F3052D0424F00A042D0C240420
:104F400045F00105240C45EA031344F001049BB22B
:104F5000224303830284038923F0700213041A0C92
:104F60001143018103899AB242F00701018170BCAB
:104F70007047058C25F0100425042C0C0484058B47
:104F8000048C25F4407524F0A0042D0524042D0D77
:104F9000240C45F4807544F0100445EA033344EAD8
:104FA00002129BB292B203830284D4E710B4048944
:104FB000E4B221430A4342EA03239CB204810189FB
:104FC00021F077021304190C41F07702028110BC22
:104FD000704700BF10B40489E4B221430A4342EA97
:104FE00003239CB2048101898AB242F48043038185
:104FF00010BC7047038923F0700213041A0C11438C
:1050000001817047838823F0700213041A0C828098
:1050100083889AB211438180704700BF038923F0CF
:10502000070213041A0C028103899AB21143018109
:10503000704700BF038923F0800213041A0C028119
:1050400003899AB211430181704700BF10B40489EB
:10505000E4B221430A4342EA03239CB2048110BC18
:10506000704700BF70B40589048B068C24F440742B
:1050700026F0220624F003043604360C25F007053A
:105080002404240C32432D0444F480762D0C42EA8F
:10509000031346F0010429439EB201810483068470
:1050A00070BC7047838829B923F080010A04130C6F
:1050B0008380704799B241F080028280704700BFC0
:1050C000A0F85010704700BF2DE9F04F99B00129AA
:1050D0000B900D9240F2D7808B1E021D9DB20146AF
:1050E0000488B0F80290099202EB85000C900691BA
:1050F00006998A88CD88A4B21FFA89FAA0180AEB0B
:10510000050382B29BB2C4EB020BCAEB0301002978
:10511000B8BF4942BBF1000FB8BFCBF1000B88B25A
:105120001FFA8BFB0FFA80F803900FFA8BF54FF6FE
:10513000FF714FF6FF70944298BF01219A4598BFC6
:1051400001204545CDF81CA00A9404910590C0F2B9
:105150009D800399CDF80CB004988B46039902907A
:105160004FF0000805EBD575CDF81080C246C5F3A9
:105170004F050FFA81F8B8F1000F78DB1FFA8BFBAF
:1051800000261EE05D44A8B285B22AB242450BDB80
:10519000DDF80CC0049B0599CCEB0007E4188944AA
:1051A000BDB21FFA89F9A7B20136B6B2029833B27E
:1051B0003A180AEB0904984597B21FFA84F945DBBF
:1051C000BCB2EF2C2746DDD80FFA89F3002BD9DBD0
:1051D00040F23F129342D5DC40F24C00C2F2000094
:1051E00040F6461EC2F2000E0268BEF800304FF0D4
:1051F000F00C19FB0C4102EB410008900193FCF705
:105200002FFC019BC3F3451C03F01F014FEAD32E73
:105210004FF440330E9302230F931091089BCDF867
:1052200044C00F2101220EA813910021CDF848E0BF
:105230001493159116921792FCF720FCFCF78AFC48
:105240000220FCF77FFD0028FAD09BE70B99DDF8E0
:1052500018C0099ADDF82890C1EB0C008418815A17
:105260006388079A09EB0100D418A3B282B20699A9
:1052700094B20C9A081D904206901FFA83F97FF4AD
:1052800037AF0D9B73B919B0BDE8F08F4FF0000C2C
:1052900008EBD8758246CDF814C0C5F34F05CDF89C
:1052A00008C068E7DDF82CA0BAF80250BAF8006030
:1052B0001FFA89F0AFB2A4B2A11BC21B0029B8BF6C
:1052C0004942002AB8BF52428BB291B20391DDF835
:1052D0000CB04FF6FF711AB20FFA8BF9A6428CBFD1
:1052E0000C460124874298BF01214A450494059148
:1052F00072DA8B4609EBD97000210591C0F34F0497
:105300008A46B9F1000FBEDB9FB20297002720E06A
:1053100002980419A3B29CB222B24A450BDBDDF815
:105320000C80059C0499C8EB03006519761884B2BB
:105330001FFA86F8ADB20137BFB23BB208EB0A02E2
:105340000BEB050099451FFA82F885B29BDB1FFA2B
:1053500088F6EF2EB046DBD829B20029D8DB40F220
:105360003F108142D4DC40F24C01C2F2000140F611
:105370004612C2F20002086813884FF0F00E15FBC7
:105380000E6200EB420106910193FCF769FB019B61
:10539000C3F3451C03F01F014FEAD32E4FF44033F3
:1053A0000E9302230F931091069BCDF844C00F215A
:1053B00001220EA813910021CDF848E01493159115
:1053C00016921792FCF75AFBFCF7C4FB0220FCF77D
:1053D000B9FC0028FAD09BE70393DDF80CC000234A
:1053E00002EBD272A2460493C2F34F045B460FFA5B
:1053F0008CF94FF0000B84E730B54FF4406083B078
:10540000C4F202004FF400510022FDF745FA4FF4B8
:105410000060C4F202000421FDF73CFA4FF4A04002
:10542000C4F201002821FEF7FBFD4FF4A040C4F2B6
:1054300001000221FEF72EFE0028F6D04FF4A04016
:10544000C4F201008021FEF725FE04460028F5D1B4
:105450004FF400600421C4F20200FDF719FA4FF482
:10546000A0402146C4F20100FEF74EFD4FF4A040DB
:10547000C4F20100FEF722FC21464FF48010FEF733
:10548000F3F84FF4006004256946C4F20200009569
:105490008DF804408DF80740FDF720F94FF4A05037
:1054A00080236946C4F202000093FDF717F94FF418
:1054B000A0504FF480726946C4F202000092FDF7DA
:1054C0000DF94FF4A0504FF400736946C4F2020086
:1054D0000093FDF703F9002003212246C4F20200E5
:1054E000FDF7E6F9002029462246C4F20200FDF746
:1054F000DFF9002006212246C4F20200FDF7D8F9A8
:1055000000200B212246C4F20200FDF7D1F9002051
:1055100022460C21C4F20200FDF7CAF90020022540
:10552000694641F65802C4F2020000928DF8045018
:105530008DF805508DF806408DF80740FDF7CEF840
:105540004FF4806021462246C4F20200FDF7B0F914
:105550004FF4806001212246C4F20200FDF7A8F951
:105560004FF480602246C4F202000821FDF7A0F942
:105570004FF4806009212246C4F20200FDF798F939
:105580004FF480602246C4F202000A21FDF790F930
:105590004FF480602246C4F202000B21FDF788F927
:1055A0004FF4806040F603736946C4F20200009332
:1055B0008DF804508DF805508DF806408DF80740A1
:1055C000FDF78CF84FF400602246C4F20200062179
:1055D000FDF76EF94FF400602246C4F20200072185
:1055E000FDF766F94FF400602246C4F202000A217A
:1055F000FDF75EF94FF4006069464FF49862C4F21B
:10560000020000928DF804508DF805508DF8064088
:105610008DF80740FDF762F84FF440602246C4F26F
:1056200002000321FDF744F94FF440602246C4F222
:1056300002000621FDF73CF94FF44060482369461B
:10564000C4F2020000938DF804508DF805508DF8D7
:1056500006408DF80740FDF741F84FF4A050224670
:10566000C4F202000A21FDF723F94FF4A050694665
:105670004FF48062C4F2020000928DF804508DF85D
:1056800005508DF806408DF80740FDF727F84FF4D8
:10569000C0502246C4F202000621FDF709F94FF47A
:1056A000C0502246C4F202000721FDF701F94FF471
:1056B000C0502246C4F202000A21FDF7F9F84FF467
:1056C000C0502246C4F202000B21FDF7F1F84FF45E
:1056D000C050C4F202000C212246FDF7E9F84FF455
:1056E000C0504FF4E653C4F20200694600938DF8AF
:1056F00004508DF805508DF806408DF80740FCF7F2
:10570000EDFF03B030BD00BF30B591B01E22009256
:10571000EF3201920422029240F2431203920222DB
:1057200000230492FF220592069305220793089313
:10573000099346F684054FF48063C4F201050A9389
:105740000B9202F5EF734FF4F072284669460D9301
:105750000E924FF4A0734FF050420F930C9246F606
:105760000414FDF7C1FB0023C4F20104CDF20503CC
:105770004FF4C062694620460C9307230A920B93AC
:10578000FDF7B2FB0120FDF7A9FB28460121FDF73B
:1057900011FC01212046FDF70DFC0120FDF79EFBC9
:1057A00040F64811C2F2000140F24402C2F2000287
:1057B00001200A60FDF75EFB11B030BD30B14FF43F
:1057C0000060C4F202000421FDF762B84FF40060EB
:1057D000C4F202000421FDF75DB800BF0023984227
:1057E000064A0748CDF205030CBF0021012108BF7E
:1057F0004FF0504311600360704700BF4C09002018
:105800004C00002040F6461240F23803C2F200027B
:10581000C2F2000310801980704700BF40F64612A4
:1058200040F23803C2F20002C2F2000312881B8861
:1058300002800B80704700BF40F64613C2F200039F
:105840001880704740F23803C2F200031880704796
:1058500040F64813C2F200031860704708B50B4BBE
:105860001A68014652B146F60410C4F20100FDF771
:105870004FFC0120BDE80840FDF730BB46F6840030
:10588000C4F20100FDF744FCF3E700BF4C0900201F
:1058900040F64813C2F20003186870472DE9F00F74
:1058A000344B35491F680B683449BA88098884B07D
:1058B000C0EB0010009132494AF6AB29B1F800B0B4
:1058C00003EB4013002102930391CAF6AA294FF07B
:1058D000800A039881188BB29A423ADCF888D7F88C
:1058E0000080039C88B30025019522B3019B029E92
:1058F0004FEA430C06EB44010023A9FB02504FF68C
:10590000F87505400AFA05F538F80C0045FA03F574
:10591000054240FA03F620D10C2A22D940FA03F0BE
:10592000C2071ED5A1F800B0BA8801330134023194
:105930009342E2D3F88801994D1CF03485420195D9
:10594000C2EB0404D1D3039BD11888B2EF28039093
:10595000BFD904B0BDE8F00F7047F007E2D40C2ABD
:10596000E0D9009A0A80BA880133013402319342A7
:10597000C3D3DFE7480900204C0000203800002096
:1059800046090020054B196800239A1C585204331D
:10599000B3F5202F5052F8D1704700BF4C000020C3
:1059A00040F24C03C2F20003C1EB01111A6800EB94
:1059B000011002EB4000704700B50E4B85B01B682C
:1059C000C1B2C0F30722C0F30740019102920390D5
:1059D00063B146F60410C4F2010001A90122FDF7EB
:1059E0000FFB0120FDF77AFA05B000BD46F68400F2
:1059F000F1E700BF4C09002000B50E4B1A6885B0D6
:105A000062B146F60410C4F2010001A90022FDF7BC
:105A1000F7FA0120FDF762FA05B000BD46F68400F2
:105A2000C4F2010001A9FDF7EBFA0120FDF756FAD7
:105A3000F2E700BF4C090020314B2DE9F00FD3F8FD
:105A400000C0BCF80630C0EB001084B04401002B4D
:105A500043D02C4E2C4D36882D6801962B4EBCF829
:105A60000400B6F800B065194AF6AB290024039586
:105A70000294CAF6AA294FF0800A30B3029B039F12
:105A80004FEA430807EB41040023A9FB00654FF6EA
:105A9000F8762E400AFA06F632F8085046FA03F66F
:105AA0002E4245FA03F71CD10C281FD945FA03F5FD
:105AB000E8071BD5A4F800B0BCF80400013301319D
:105AC00002349842E1D8BCF80630029C0134F0312F
:105AD000A3420294C0EB0101CFD804B0BDE8F00F9F
